:10000000C8C10000F7C10000F5C10000F3C1000045
:10001000F1C10000EFC10000EDC10000EBC1000024
:10002000E9C10000E7C10000E5C10000E3C1000034
:10003000E1C10000DFC10000DDC10000DBC1000044
:10004000D9C10000D7C10000D5C10000D3C1000054
:10005000D1C10000CFC10000CDC100000C947B0ACB
:10006000C9C100000C94450A0C941C0AC3C10000CD
:10007000C1C10000BFC10000BDC10000BBC1000084
:10008000B9C10000B7C10000B5C10000B3C1000094
:10009000B1C10000AFC10000ADC10000ABC10000A4
:1000A000A9C10000A7C10000A5C10000A3C10000B4
:1000B000A1C100009FC100009DC100009BC10000C4
:1000C00099C1000097C1000095C1000093C10000D4
:1000D00091C100008FC100008DC100008BC10000E4
:1000E00089C1000020627574746F6E73206465614D
:1000F00063746976617465640020627574746F6EF0
:10010000732061637469766174656400436F727211
:100110006563743A200020636F72726563743A20DD
:100120000020756E707265737365642000207072B4
:100130006573736564200020627574746F6E73203C
:1001400057696E00405069616E6F207374617274FC
:1001500020706C6179000000200023002600290037
:100160002C002F00320000010000030106010901EC
:1001700000000A0B02090C0D0E0807030401000021
:10018000000000000000000000000000000000006F
:10019000000000000000000000000000121110002C
:1001A000000000000000000000000000000000004F
:1001B00000000000000023232323232323232323E1
:1001C0002048656C6C6F20232323232323232323C0
:1001D000230000FFF40103FFF40106FFF40100FF18
:1001E000F40103FFF40106FFF40101FFF40103FF32
:1001F000F40107FFF40101FFF40103FFF40107FF1D
:10020000F4010008FA0007FFFA000306FA0007FFEE
:10021000FA000408FA0009FFFA000008F40103FFDD
:10022000F4010406F40100FFF40103FFF4010406E5
:10023000F4010008FA0007FFFA000306FA0007FFBE
:10024000FA000408FA0009FFFA000207F40104FFAB
:10025000F4010709F40102FFF40104FFF4010709A6
:10026000F4010207FA0006FFFA000405FA0006FF8F
:10027000FA0007FFFA0008FFFA000207F40104FF82
:10028000F40108FFF4010207F40104FFF40108FF80
:10029000F4010209F40107FFF4010AFFF401040864
:1002A000F40103FFF4010406F40104FFF40103FF69
:1002B000F4010406F40104FFF40103FFF401040651
:1002C000F40104FFF40103FFF4010406F40100004B
:1002D0002200250028002B002E00310034000201EE
:1002E0000000050108010B01000021002400270087
:1002F0002A002D0030003300010100000401070135
:100300000A0105050505070508080808020202029A
:100310000A0A0808040404040101010101010101A1
:100320000303030303030303040707070C0C0C0C6C
:100330000C0C0C0C02020202060606060606060655
:100340000B0B0B0B0B0B0B0B0102102020080810E2
:100350002040102040800201020108040201010235
:10036000040810204080804020100804020180040E
:100370000201804020100804020108040201010269
:100380000408102040800102040810204080C50AA3
:10039000370F11241FBECFEFD1E2DEBFCDBF00E08B
:1003A0000CBF12E0A0E0B2E0ECEDF3E200E00BBF26
:1003B00002C007900D92A239B107D9F724E0A2E953
:1003C000B2E001C01D92AF3DB207E1F711E0C8EC09
:1003D000D1E000E006C021970109802FFE010E94B4
:1003E000C010C73CD10780E00807A9F70E94720C33
:1003F0000C94DD1105CE90E0FC01E85BFC4F2491EC
:100400008E5F9C4FFC018491882399F090E0880FC7
:10041000991FFC01E851FD4FA591B491FC01E253F5
:10042000FD4F859194918FB7F894EC91E22BEC936A
:100430008FBF0895AF92BF92CF92DF92EF92FF925B
:100440000F931F93CF93DF936C017B018B01040FFC
:10045000151FEB015E01AE18BF08C017D10759F098
:100460006991D601ED91FC910190F081E02DC601DA
:100470001995892B79F7C501DF91CF911F910F91C4
:10048000FF90EF90DF90CF90BF90AF900895FC0168
:1004900044815581608171818BE992E0CBCF0895D1
:1004A000FC01538D448D252F30E0842F90E0821B7A
:1004B000930B541710F0CF96089501970895FC01FF
:1004C000918D828D981761F0A28DAE0FBF2FB11D57
:1004D0005D968C91928D9F5F9F73928F90E00895AF
:1004E0008FEF9FEF0895FC01918D828D981731F069
:1004F000828DE80FF11D858D90E008958FEF9FEFBD
:100500000895FC01918D228D892F90E0805C9F4F92
:10051000821B91098F73992708958BE992E0F1DF8F
:1005200021E0892B09F420E0822F0895FC01A48D9D
:10053000A80FB92FB11DA35ABF4F2C91848D90E005
:1005400001968F739927848FA689B7892C93A089E8
:10055000B1898C91837080648C93938D848D981372
:1005600006C00288F389E02D80818F7D8083089505
:10057000EF92FF920F931F93CF93DF93EC0181E0F3
:10058000888F9B8D8C8D98131AC0E889F98980819A
:1005900085FF15C09FB7F894EE89FF896083E889CD
:1005A000F98980818370806480839FBF81E090E0BF
:1005B000DF91CF911F910F91FF90EF900895F62E4C
:1005C0000B8D10E00F5F1F4F0F731127E02E8C8DE6
:1005D0008E110BC00FB607FCFACFE889F98980812C
:1005E00085FFF5CFCE01A2DFF2CFEB8DEC0FFD2F13
:1005F000F11DE35AFF4FF0829FB7F8940B8FEA8901
:10060000FB8980818062D0CF0F931F93CF93DF93BC
:100610008C01D0E0C0E0F801EC0FFD1F649166236F
:1006200039F08BE992E0A4DF892B11F02196F3CF0A
:10063000CE01DF91CF911F910F910895CF93DF935A
:10064000EC01888D8823B1F0AA89BB89E889F989F2
:100650008C9185FD03C0808186FD0CC00FB607FC20
:10066000F7CF8C9185FFF2CF808185FFEDCFCE0152
:100670005DDFEACFDF91CF91089580E090E0892B94
:1006800021F04BDF81110E94000080E090E0892B77
:1006900049F080E090E0892B29F00E940000811150
:1006A0000E94000080E090E0892B49F080E090E01B
:1006B000892B29F00E94000081110E94000080E037
:1006C00090E0892B49F080E090E0892B29F00E948E
:1006D000000081110C94000008958150823108F0CF
:1006E0005AC0E82FF0E08827E758FC4F8F4F0C9452
:1006F000C01099039D038B0391039503CB03A003C3
:10070000A603AA03B003B403B803BE03C203CB031A
:10071000C603CC03D003809180008F778093800044
:100720000895809180008F7DF9CF80918000877F30
:10073000F5CF84B58F7784BD089584B58F7DFBCFC9
:100740008091B0008F778093B00008958091B000C1
:100750008F7DF9CF809190008F77809390000895DE
:10076000809190008F7DF9CF80919000877FF5CFA9
:100770008091A0008F778093A00008958091A000C1
:100780008F7DF9CF8091A000877FF5CF80912001E8
:100790008F77809320010895809120018F7DF9CF7C
:1007A00080912001877FF5CFCF93DF93282F30E012
:1007B000F901E059FE4F8491F901E85BFC4FD491B7
:1007C000F901EE5FFC4FC491CC2399F0811185DFD4
:1007D000EC2FF0E0EE0FFF1FEA5AFE4FA591B49107
:1007E000EC91ED2381E090E009F480E0DF91CF917E
:1007F000089580E090E0FACF1F93CF93DF93282FE6
:1008000030E0F901E059FE4F8491F901E85BFC4FBB
:10081000D491F901EE5FFC4FC491CC23A1F0162FC7
:1008200081115BDFEC2FF0E0EE0FFF1FE253FD4F75
:10083000A591B4918FB7F894EC91111108C0D0959F
:10084000DE23DC938FBFDF91CF911F910895DE2BC4
:10085000F8CF863308F0865320917B00982F98704C
:10086000277F922B90937B008770806480937C001D
:1008700080917A00806480937A0080917A0086FD6E
:10088000FCCF809178009091790008953FB7F8945B
:100890008091970290919802A0919902B0919A024A
:1008A00026B5A89B05C02F3F19F00196A11DB11DCB
:1008B0003FBFBA2FA92F982F8827BC01CD01620F07
:1008C000711D811D911D42E0660F771F881F991FC2
:1008D0004A95D1F70895CF92DF92EF92FF92CF938E
:1008E000DF93D4DFEB018AE0C82ED12CE12CF12C70
:1008F000CDDF6C1B7D0B683E7340D0F381E0C81ADE
:10090000D108E108F108C851DC4FC114D104E10459
:10091000F10471F7DF91CF91FF90EF90DF90CF90CE
:100920000895809188049091890497FD14C0880FE0
:10093000991FFC01E65DFD4F60E080815DDFCBDF4C
:10094000E0918804F0918904EE0FFF1FE65DFD4FF2
:1009500060E0808151DF80918A0490918B0497FD43
:1009600014C0880F991FFC01E65DFD4F60E0808197
:1009700043DFB1DFE0918A04F0918B04EE0FFF1F9B
:10098000E65DFD4F60E0808137DF8FEF9FEF909352
:1009900089048093880490938B0480938A0408953B
:1009A0002FB7F89460919302709194028091950210
:1009B000909196022FBF0895CF93DF93E091780432
:1009C000F0917904749764F4E8E8F3E0D0E0C0E0D3
:1009D000A191B191AB2B51F02196C431D105C1F752
:1009E000CFEFDFEFCE01DF91CF910895FE01EE0F43
:1009F000FF1FEE0FFF1FE055FC4F60837183828362
:100A00009383FE01EE0FFF1FE857FC4F5183408395
:100A1000FE01EE0FFF1FE050FC4F3183208381E089
:100A2000FE01E05BFB4F8083BBDFFE01EE0FFF1F8B
:100A3000EE0FFF1FE85CFC4F60837183828393831A
:100A40008091780490917904019690937904809331
:100A50007804C8CFDC0150968C9150978823B1F070
:100A600070E0660F771F1296ED91FC911397E60FD9
:100A7000F71F14968D919C91680F791F8081918149
:100A8000FB0120813181821B930B08958FEF9FE73B
:100A900008951F93CF93DF93EC0110E08A85181718
:100AA000F0F48B85810FD5DE212F30E0220F331F2C
:100AB00069894A815B81662359F0FA01E20FF31FCD
:100AC00060817181EE81FF81E20FF31F718360838A
:100AD000240F351FF901918380831F5FDFCF60DF13
:100AE0006C877D878E879F87DF91CF911F910895B7
:100AF00089EC94E0CEDF9091D304A091CB04B09127
:100B0000CC04E091CD04F091CE0480E0981731F050
:100B10002D913D91219331938F5FF8CF089561E03E
:100B200081E36ADE21E030E046E656E066E970E007
:100B300080E090E041DF21E030E040EB55E068EB01
:100B400078E880E090E038DF21E030E04DEA55E0E1
:100B500060EA7CE880E090E02FCF60E080E34CCE5C
:100B600060E081E349CE8F929F92AF92BF92EF9265
:100B7000FF920F931F93CF93DC0198962C91989737
:100B80002223D9F1C62F8C01FC01E084F184D70126
:100B90001C968D909D90AD90BC901F97B0E18B0EF0
:100BA000911CA11CB11CFCDE681579058A059B050A
:100BB00040F0D701ED91FC910480F581E02DC70153
:100BC0001995D8011896ED91FC918285C81780F58A
:100BD0006C2F70E0660F771F82819381680F791FF9
:100BE000FB0180819181CF911F910F91FF90EF9038
:100BF000BF90AF909F908F9008951D968C918350D9
:100C0000823058F4862FCF911F910F91FF90EF9073
:100C1000BF90AF909F908F90C7CD862FCF911F919F
:100C20000F91FF90EF90BF90AF909F908F9011CE5B
:100C30008FEF9FEFD8CFDC01ED91FC910288F38913
:100C4000E02D1994FC01778366830895FC01758378
:100C500064830895CF93DF93EC01E881F9810484E4
:100C6000F585E02D61E01995E881F9810680F7812D
:100C7000E02DCE011995EE81FF81309719F0DF91BB
:100C8000CF911994DF91CF910895FC0113820895BB
:100C900021E0FC0123830895FC0183810895FC0178
:100CA00062830895FC018281089542E050E06AE683
:100CB00072E08BE992E0BECBCF93DF93A5DCEC0131
:100CC000F4DF8C0F9D1FDF91CF91089584E491E0B4
:100CD000F3DFEAE7F4E08FEF9FEF97878687918B4A
:100CE000808B128A138A148A158A15860895CF93E9
:100CF000DF93EC01E881F9810484F585E02D61E062
:100D00001995EE81FF81309709F01995CE010F9664
:100D1000BEDB87E391E0DF91CF91CECF21E0FC01F4
:100D200023830F96B4DB89EF90E0C6CFCF93DF9398
:100D3000EC011B82E881F9810484F585E02D60E0F7
:100D40001995CE010F96A3DB84EE90E0DF91CF9151
:100D5000B3CFCF92DF92EF92FF920F931F93CF9377
:100D6000DF93CDB7DEB7A1970FB6F894DEBF0FBE05
:100D7000CDBF282F30E050E040E019A28E010F5D7A
:100D80001F4F8AE0C82ED12CE12CF12CCA01B901E9
:100D9000A70196010E949E10605DF80162938F0189
:100DA000211531054105510589F73097F1F0019082
:100DB0000020E9F73197AF01401B510BB8018BE9D7
:100DC00092E038DB8C0171DF800F911FA1960FB686
:100DD000F894DEBF0FBECDBFDF91CF911F910F9171
:100DE000FF90EF90DF90CF90089510E000E0EBCF00
:100DF0002F923F924F925F926F927F928F929F922B
:100E0000AF92BF92CF92DF92EF92FF920F931F9318
:100E1000CF93DF9300D01F92CDB7DEB79C838B8337
:100E2000DC01ED91FC910284F385E02D1995898315
:100E30008111C3C0AB81BC81ED91FC9111970684F7
:100E4000F785E02DCD0119958A83882309F4B5C073
:100E5000EB81FC81238D348D458D568D678D70A17E
:100E600081A192A1A0E00E94DA1009F07BC098DD78
:100E70008B019C01AB81BC815B966C935B975C960C
:100E80001C935C975D968C935D975E963C935E9702
:100E90005F961C925F9790961C92909791961C92E9
:100EA000919792961C92929718968D919C91DC0145
:100EB000ED91FC910480F581E02D199510E000E0A2
:100EC000EB81FC818585823009F4CFC008F08DC0AC
:100ED000882309F49DC0813009F4B1C00F5F1F4F12
:100EE0000E30110569F710E0CB80DC80BFE0CB0E3F
:100EF000D11CEB81FC814485141708F0DFC0E12E82
:100F0000F12CA1A5B2A5AE0DBF1D83A594A5FC0132
:100F1000EE0DFF1D9C918081981711F1C601B7DA83
:100F2000AB81BC819996ED91FC91EE0DFF1D808106
:100F3000882309F4C0C08DE291E066DB812F09DFD0
:100F4000AB81BC819996ED91FC919A97EE0DFF1DB6
:100F500060811496ED91FC91309711F0C7011995BD
:100F60001F5FC7CF1DDD9B01AC0160E070E080E03A
:100F700090E0EB81FC81A38CB48CC58CD68CE78C83
:100F8000F0A001A112A10E94C810F22FE32FAB81A3
:100F9000BC8193960D911D912D913C9196971801CE
:100FA00029012F2F3E2F51016201E12CF12C00E08D
:100FB00010E00E94D11008F05ACF89810F900F9055
:100FC0000F900F90DF91CF911F910F91FF90EF90B5
:100FD000DF90CF90BF90AF909F908F907F906F9059
:100FE0005F904F903F902F900895833009F455C043
:100FF000843009F073CF802FD7DBAB81BC81999609
:10100000ED91FC91E00FF11F21E0892B61F551C0BA
:10101000AB81BC819996ED90FC909A97E00EF11E01
:10102000602FCD01A0DD21E0EB81FC814789508D4F
:10103000481759070CF020E0D7012C934FCFEB81D4
:10104000FC81E1A4F2A4E00EF11E602FCF018BDD44
:1010500021E0AB81BC8155964D915C918417950739
:101060000CF020E0F701208339CFAB81BC81999649
:10107000ED90FC909A97E00EF11E602F18968D91DE
:101080009C91E8DC97FF03C091958195910921E03F
:10109000EB81FC81418D528DCBCF802F85DBAB81E5
:1010A000BC819996ED91FC91E00FF11F21E0892B15
:1010B000D1F220E0D8CF81E291E03FCFEB81FC81FB
:1010C0008685811140C005A4F6A5E02D3097D9F1A1
:1010D00030E020E050E02417350794F46191AB81B3
:1010E000BC8199960D911C91D801A20FB31F9C91C0
:1010F00070E09617170609F48F5F2F5F3F4FEBCF15
:10110000EB81FC8197A1981761F087A3CF010F961F
:10111000BED986E191E078DAAB81BC8197968C915B
:1011200018DEEB81FC8197A1848598130CC0019097
:10113000F081E02D0680F781E02D8B819C8119954F
:10114000FA81F9833ACFAB81BC811E968C911E97B0
:10115000813039F49D968D919C9110E001E0892BAE
:1011600051F580E0EB81FC819485891708F025CF4B
:10117000282F30E0A1A5B2A5A20FB31F9C9103A414
:10118000F4A5E02DE20FF31F90838F5FEBCF319733
:101190009081911302C081110DC08C9181134AC0BE
:1011A000EB81FC8107A38CE091E02EDAEB81FC81DE
:1011B00087A1CFDD1F5FAB81BC811C968C911C97F2
:1011C000181778F6812F90E099960D90BC91A02D7C
:1011D000A80FB91F2C912111EDCFAB81BC819B963B
:1011E000ED91FC919C97E80FF91FF080FF2011F31F
:1011F0009D960D90BC91A02DEB81FC8187A1FD01F6
:10120000E80FF11D90819113C2CF8F5FAB81BC813C
:1012100097968C9397979F969C919F978913C3CF8E
:10122000ED91FC9111970680F781E02DCD01199584
:10123000F982C3CEAB81BC8197961C92B4CFCF9379
:10124000DF93EC0188819981009709F0B2D6198269
:1012500018821D821C821B821A82DF91CF91089511
:10126000CF93DF93EC0184E692E0998388838A81AF
:101270009B81009709F09DD68C819D81009709F094
:1012800098D68E819F81009709F093D6888599859D
:10129000009719F0DF91CF918CC6DF91CF9108951F
:1012A000CF93DF93EC01DCDFCE01DF91CF9181C6DC
:1012B000FC01878590897DC6CF93DF93EC01F8DF31
:1012C000CE01DF91CF9175C60F931F93CF93DF931C
:1012D000EC0188819981009759F02A813B8126177A
:1012E000370730F081E0DF91CF911F910F91089582
:1012F0008B016F5F7F4F6AD7009759F0998388837E
:101300001B830A832C813D81232B61F7FC01108212
:10131000E9CF80E0E8CFEF92FF920F931F93CF9336
:10132000DF936115710541F480E0DF91CF911F914A
:101330000F91FF90EF90089541155105A9F07B01A1
:10134000EC010C811D81040F151FB801BDDF88233E
:1013500059F3288139818C819D81B701820F931FB8
:101360000E94D6111D830C8381E0DFCFCF93DF93E2
:10137000EC01FB014481558160817181CCDF8111D9
:1013800002C0CE015CDFCE01DF91CF910895EF92D4
:10139000FF920F931F93CF93DF93EC017B018A01A0
:1013A000BA0192DF81110AC0CE0149DFCE01DF917F
:1013B000CF911F910F91FF90EF9008951D830C83A3
:1013C000B70188819981F2D7F1CFEF92FF920F9305
:1013D0001F93CF93DF93CDB7DEB762970FB6F89424
:1013E000DEBF0FBECDBF8C01CB01F8011182108290
:1013F00013821282158214824AE09E012F5F3F4FB2
:101400007901B90168D6F70101900020E9F7319719
:10141000AF014E195F09B701C801B9DF62960FB677
:10142000F894DEBF0FBECDBFDF91CF911F910F911A
:10143000FF90EF900895A6D71F920F920FB60F92CC
:1014400011240BB60F922F933F934F935F936F939B
:101450007F938F939F93AF93BF93EF93FF938BE90A
:1014600092E064D8FF91EF91BF91AF919F918F91DE
:101470007F916F915F914F913F912F910F900BBE94
:101480000F900FBE0F901F9018951F920F920FB6DE
:101490000F9211240BB60F922F938F939F93EF937C
:1014A000FF93E091AB02F091AC028081E091B10238
:1014B000F091B20282FD1DC090818091B4028F5FD5
:1014C0008F732091B502821741F0E091B402F0E0F1
:1014D000E556FD4F958F8093B402FF91EF919F9158
:1014E0008F912F910F900BBE0F900FBE0F901F90FA
:1014F00018958081F2CF1F920F920FB60F92112490
:101500002F933F938F939F93AF93BF9380919302B9
:1015100090919402A0919502B0919602309192021E
:1015200023E0230F2D3758F50196A11DB11D2093FF
:1015300092028093930290939402A0939502B093A9
:1015400096028091970290919802A0919902B09191
:101550009A020196A11DB11D809397029093980263
:10156000A0939902B0939A02BF91AF919F918F91EE
:101570003F912F910F900FBE0F901F90189526E866
:10158000230F0296A11DB11DD2CFCF92DF92EF9211
:10159000FF920F931F93CF93DF9300D000D0CDB76E
:1015A000DEB710929E0210929D0288EE93E0A0E0BA
:1015B000B0E080939F029093A002A093A102B09309
:1015C000A2028CE192E090939C0280939B0285ECB6
:1015D00090E09093A8028093A70284EC90E090930F
:1015E000AA028093A90280EC90E09093AC028093D1
:1015F000AB0281EC90E09093AE028093AD0282EC5E
:1016000090E09093B0028093AF0286EC90E09093CC
:10161000B2028093B1021092B4021092B5021092FD
:10162000B6021092B70284E692E09093CA048093C7
:10163000C9041092D0041092CF041092D2041092D8
:10164000D1048EE08093D30406E30093D404109277
:10165000D5041092D6041092D7041092D80411E049
:101660001093D9041092DA048CE190E006D49093A0
:10167000CC048093CB044CE150E06FEF70E08FD648
:101680008CE190E0FAD39093CE048093CD042CE1CA
:10169000DC011D922A95E9F71A8219821C821B82AD
:1016A0001E821D8244E050E06DE672E0CE0101969C
:1016B0006EDE10929B0410929C0410929E04109275
:1016C0009D041092A00410929F0486E492E09093EF
:1016D0009A048093990489EC94E09093A2048093F7
:1016E000A1040093A30483E48093A4041092A504AE
:1016F00082E08093A6041093A7041092A90410928C
:10170000A8041092AB041092AA041092AD04109297
:10171000AC0469817A816115710529F04D815E8182
:1017200088EA94E034DE8AEF90E09093AF048093EF
:10173000AE048EEE92E09093B1048093B00482E305
:1017400090E09093B3048093B2041092B40410928A
:10175000B5041092B6041092B7041092B804109217
:10176000B9041092BA041092BB0482E390E0A0E0A6
:10177000B0E08093BC049093BD04A093BE04B093EA
:10178000BF041092C00480E092E09093C70480935D
:10179000C60486E08093C80481E08093C104009170
:1017A000A4040F5F8091A304081B0093A50410E01C
:1017B000C80163D37C019093C3048093C204C80121
:1017C0005CD38093C4049093C504FC01D70120919D
:1017D000A504CD018E199F092817190621F01CF0C8
:1017E0001D921192F4CF89819A81E3D38CE0ECE0D1
:1017F000F2E0AAE7B4E001900D928A95E1F78FE359
:10180000809386048FEF809387048FEF9FEF9093F0
:1018100089048093880490938B0480938A041092A7
:101820008C0410928D0410928E0410928F041092EA
:10183000900410929104109292041092930482E307
:101840008093940486E990E09093960480939504A5
:1018500010929804109297040AE212E032E4C32E28
:1018600032E0D32EF801F0800E5F1F4F8F2D0E94C3
:10187000FB0160E08F2D0E94FC03C016D10691F79A
:101880008FD800E514E0E8E8F3E028E3E22E23E057
:10189000F22E20EB33E0D8011D928D0111921192AE
:1018A000D7016D937D938D939D937D01AF0142563A
:1018B0005F4FDA011D921C922E173F0761F71092BD
:1018C00079041092780426960FB6F894DEBF0FBE06
:1018D000CDBFDF91CF911F910F91FF90EF90DF90DF
:1018E000CF900895CF93DF93CDB7DEB7A5970FB60E
:1018F000F894DEBF0FBECDBF789484B5826084BDFE
:1019000084B5816084BD85B5826085BD85B5816003
:1019100085BD80916E00816080936E001092810081
:10192000809181008260809381008091810081603C
:1019300080938100809180008160809380008091FD
:10194000B10084608093B1008091B0008160809389
:10195000B00080919100826080939100809191000D
:1019600081608093910080919000816080939000CD
:101970008091A10082608093A1008091A10081608C
:101980008093A1008091A00081608093A00080914D
:1019900021018260809321018091210181608093E7
:1019A00021018091200181608093200180917A0043
:1019B000846080937A0080917A00826080937A00BC
:1019C00080917A00816080937A0080917A008068AB
:1019D00080937A001092C100E091AB02F091AC02CA
:1019E00082E08083E091A702F091A8021082E0914A
:1019F000A902F091AA0280E180831092B302E091E3
:101A0000AF02F091B00286E08083E091AD02F091E8
:101A1000AE02808180618083E091AD02F091AE02E0
:101A2000808188608083E091AD02F091AE02808178
:101A300080688083E091AD02F091AE0280818F7D5D
:101A4000808386EB91E038D981E30E94FB0180E33B
:101A50000E94FB0160E081E30E94FC0361E080E3FF
:101A60000E94FC038091D904811142D80E9446044F
:101A70004B015C0154EFC52EDD24D394E12CF12CF5
:101A80000E944604681979098A099B09683E7340D7
:101A900081059105A8F321E0C21AD108E108F108F7
:101AA00038EE830E33E0931EA11CB11CC114D10487
:101AB000E104F10429F78091D904811119D889E949
:101AC00094E02CD930E020E04FE452E060ED77E084
:101AD00080E090E00E94DC048FE895E09093A00401
:101AE00080939F048E010F5F1F4F0E94D0044B0113
:101AF0005C01E0E5F4E088E893E09DA38CA348E373
:101B0000642E43E0742EC301148AACA1BDA12D91B3
:101B10003D91BDA3ACA3232B09F447C0DC014D913B
:101B20005D916D917C919C0128583F4FD901CD90DA
:101B3000DD90ED90FC9014012501241A350A460A27
:101B4000570A2C143D044E045F0478F14C0D5D1DC2
:101B50006E1D7F1DDC014D935D936D937C931397F8
:101B60002081222311F12CA13DA12A583F4FD901F8
:101B70002D913C91B1E021153105B1F0ECA0FDA013
:101B80004EE9E40EF11CD7014D915C9142175307C9
:101B900064F4B1E0B48B4F5F5F4FD7014D935C931A
:101BA0004217530714F0B2E0B48B3196049620EB41
:101BB00033E04CA15DA12417350709F0A5CFF12C26
:101BC000E12CC701885C9C4F6C014C0194ED891A93
:101BD0009EEF990AD4018C91813009F43FC0823084
:101BE00009F444C0BFEFEB1AFB0AE2E06E0E711C71
:101BF000F4E1EF16F10429F789E994E0F9D860914E
:101C0000870467FD28C0062E000C770B80918604A0
:101C100090E086179707FCF0681779070CF459C015
:101C2000C0908C04D0908D04E0908E04F0908F04CE
:101C3000C114D104E104F10409F010C12FEF209385
:101C400087040E949104E0919704F091980481E048
:101C5000309709F0F5C00E943D0347CFF301E05BE8
:101C6000FF4F0190F081E02D1995BCCF5301B0E5F5
:101C7000AB0EB11CD501ED91FC91199580917804C2
:101C800090917904009709F4ADCFF501208131815D
:101C9000232B09F4A7CF11821082F601E85EFE4FD4
:101CA0001082D4011C92F701EE0FFF1FEE0FFF1FF1
:101CB000E055FC4F1082118212821382F301E05131
:101CC000FF4F1182108201979093790480937804DA
:101CD00089CF660F771F660F771F6E527E4F44E0E5
:101CE00050E0C801EFD1C980EA80AB80BC800E2CE7
:101CF000000CFF080C2C000CDD0840908C04509068
:101D00008D0460908E0470908F044114510461041E
:101D1000710409F097C00E9491041F8E1E8E19A2B3
:101D200018A21BA21AA24AE0B801C501DED1F8012F
:101D300001900020E9F73197AF01401B510BB8012A
:101D4000CE014E9624DBB701CE0148963EDBB601AC
:101D5000CE0142963ADB1A8219821C821B821E82B5
:101D60001D8242E150E062E772E0C80110DBBE0173
:101D70006E5E7F4FC801FADA4C0141E050E065E841
:101D800072E0C9DA882309F466C0BE01685E7F4F3D
:101D9000C401ECDA4C0149E050E067E872E0BBDADC
:101DA000811102C0C4014BDABE01625E7F4FC401E3
:101DB000DDDA0E9447020E94550689819A81F9D096
:101DC0008A899B89F6D0888D998DF3D08E8D9F8DD1
:101DD000F0D0D0928904C0928804F0928B04E092F3
:101DE0008A04F601EE0FFF1FE65DFD4F61E0808182
:101DF0000E94FC03F7FC09C0F701EE0FFF1FE65D30
:101E0000FD4F61E080810E94FC030E94D0046A0DB6
:101E10007B1D811D911D60938C0470938D048093B4
:101E20008E0490938F04809187048F5F8093870442
:101E3000E0919704F091980480E0309709F40BCF7B
:101E4000199509CF0E94D00464157505860597057C
:101E500008F061CF00CFC401F2D997CF0E94D0041F
:101E60006C157D058E059F0508F0E8CEF4CE89E956
:101E700094E01EDA89EC94E0F3C90F931F93CF939B
:101E8000DF938230910510F482E090E0E091DD0470
:101E9000F091DE0430E020E0B0E0A0E0309799F46B
:101EA0002115310509F44AC0281B390B24303105AE
:101EB000D8F58A819B816115710589F1FB019383B6
:101EC0008283FE0111C04081518102811381481734
:101ED0005907E0F04817590799F4109761F01296E6
:101EE0000C93129713961C933296CF01DF91CF91EA
:101EF0001F910F9108950093DD041093DE04F4CF39
:101F00002115310551F04217530738F0A901DB01C3
:101F10009A01BD01DF01F801C1CFEF01F9CF909324
:101F2000DE048093DD04CDCFFE01E20FF31F819329
:101F300091932250310939832883D7CF2091DB0434
:101F40003091DC04232B41F42091080230910902E6
:101F50003093DC042093DB042091060230910702C9
:101F60002115310541F42DB73EB740910A02509139
:101F70000B02241B350BE091DB04F091DC04E2172B
:101F8000F307A0F42E1B3F0B2817390778F0AC019C
:101F90004E5F5F4F2417350748F04E0F5F1F509379
:101FA000DC044093DB04819391939FCFF0E0E0E069
:101FB0009CCFCF93DF930097E9F0FC013297138217
:101FC0001282A091DD04B091DE04ED0130E020E04A
:101FD0001097A1F420813181820F931F2091DB049F
:101FE0003091DC042817390709F061C0F093DC0454
:101FF000E093DB04DF91CF910895EA01CE17DF076C
:10200000E8F54A815B819E0141155105B1F7E9016F
:10201000FB83EA8349915991C40FD51FEC17FD0743
:1020200061F4808191810296840F951FE901998363
:102030008883828193819B838A83F0E0E0E012961B
:102040008D919C9113970097B9F52D913C91119723
:10205000CD010296820F931F2091DB043091DC04A6
:102060002817390739F6309751F51092DE0410928F
:10207000DD04B093DC04A093DB04BCCFD383C28324
:1020800040815181840F951FC817D90761F44E5FB5
:102090005F4F88819981480F591F518340838A81FE
:1020A0009B81938382832115310509F0B0CFF09392
:1020B000DE04E093DD049ECFFD01DC01C0CF13827E
:1020C0001282D7CFFB01DC0102C005900D92415076
:1020D0005040D8F70895BB274A3031F4992322F4B1
:1020E000BDE2909581959F4F01C0BB27FB0155270D
:1020F000AA27880F991FAA1FA41710F0A41B839565
:102100005051B9F7A05DAA3308F0A95DA1930097DB
:1021100079F7B111B1931192CB0100C0DC01FC0140
:10212000672F71917723E1F7329704C07C916D930B
:1021300070836291AE17BF07C8F30895A1E21A2E0B
:10214000AA1BBB1BFD010DC0AA1FBB1FEE1FFF1F5B
:10215000A217B307E407F50720F0A21BB30BE40BAB
:10216000F50B661F771F881F991F1A9469F76095F2
:102170007095809590959B01AC01BD01CF010895AC
:10218000EE0FFF1F881F8BBF0790F691E02D19946B
:102190002A193B094C095D096E097F09800B910BD7
:1021A00008952A153B054C055D056E057F058007E2
:1021B000910708950024A7FD00942A1730054005D3
:1021C0005005600570058005900508954F925F9257
:1021D0006F927F928F929F92AF92BF92CF92DF9237
:1021E000EF92FF920F931F93CF93DF938C01009791
:1021F00091F4CB01DF91CF911F910F91FF90EF9060
:10220000DF90CF90BF90AF909F908F907F906F9016
:102210005F904F9032CEFC01E60FF71F9C012250D9
:102220003109E217F30708F4AAC0D901CD91DC9176
:102230001197C617D70718F1C530D10570F0CE0138
:1022400004978617970748F0C61BD70B2297C193B0
:10225000D1936D937C93CF01ACDEC801DF91CF9118
:102260001F910F91FF90EF90DF90CF90BF90AF90B4
:102270009F908F907F906F905F904F9008955B013B
:10228000AC1ABD0A4C018C0E9D1EA091DD04B091CC
:10229000DE04512C412CF12CE12C109731F580916A
:1022A000DB049091DC048815990509F05CC04616A2
:1022B000570608F058C080910602909107020097D7
:1022C00041F48DB79EB740910A0250910B02841BD6
:1022D000950BE817F90708F052C0F093DC04E0937F
:1022E000DB04F90171836083B8CF8D919C911197C4
:1022F00012966C90129713967C901397A815B905B7
:1023000059F56C0142E0C40ED11CCA14DB0420F163
:10231000AC014A195B09DA011296159780F06282C6
:10232000738251834083D9016D937C93E114F1044E
:1023300071F0D7011396FC93EE9312978ECF2296ED
:102340008C0F9D1FF90191838083F301EFCFF093F0
:10235000DE04E093DD0481CF4816590608F42C0111
:102360007D01D3019ACFCB0188DD7C01009739F044
:10237000AE01B8010BD0C8011CDE87016ECF10E0A2
:1023800000E06BCF81E090E0F89417C0FB01DC0126
:1023900002C001900D9241505040D8F70895DC01E1
:1023A00001C06D9341505040E0F70895FB01DC01FE
:1023B00001900D920020E1F7089511E0C8ECD1E002
:1023C00000E005C0802FFE01DBDE2196011DC93C27
:0C23D000D10780E00807B1F7F894FFCFB8
:1023DC000004090004090000DF0480000004090067
:1023EC00040901040A01040A00000000B8021A02E0
:1023FC0050021E0381025F027302170019001B00BA
:10240C001D001F00210023002500270029002B00A0
:10241C002D000000000058095C09F80677061B0621
:10242C0052064F064C068E0696062A0626062206ED
:10243C00000000003009500949050D0A006B657950
:10244C0073005069616E6F20706C6179206E6F74CF
:10245C0065733A20002C002C2064656C61793A205D
:02246C0000006E
:020000023000CC
:10E000000D9489F10D94B2F10D94B2F10D94B2F129
:10E010000D94B2F10D94B2F10D94B2F10D94B2F1F0
:10E020000D94B2F10D94B2F10D94B2F10D94B2F1E0
:10E030000D94B2F10D94B2F10D94B2F10D94B2F1D0
:10E040000D94B2F10D94B2F10D94B2F10D94B2F1C0
:10E050000D94B2F10D94B2F10D94B2F10D94B2F1B0
:10E060000D94B2F10D94B2F10D94B2F10D94B2F1A0
:10E070000D94B2F10D94B2F10D94B2F10D94B2F190
:10E080000D94B2F10D94B2F10D94B2F10D94B2F180
:10E090000D94B2F10D94B2F10D94B2F10D94B2F170
:10E0A0000D94B2F10D94B2F10D94B2F10D94B2F160
:10E0B0000D94B2F10D94B2F10D94B2F10D94B2F150
:10E0C0000D94B2F10D94B2F10D94B2F10D94B2F140
:10E0D0000D94B2F10D94B2F10D94B2F10D94B2F130
:10E0E0000D94B2F141546D656761323536300041AF
:10E0F000726475696E6F206578706C6F72657220DE
:10E1000073746B3530305632206279204D4C530099
:10E11000426F6F746C6F616465723E004875683F52
:10E1200000436F6D70696C6564206F6E203D200048
:10E130004350552054797065202020203D20005FF9
:10E140005F4156525F415243485F5F3D2000415658
:10E1500052204C696243205665723D20004743437C
:10E160002056657273696F6E203D20004350552024
:10E1700049442020202020203D20004C6F7720663D
:10E18000757365202020203D20004869676820665F
:10E190007573652020203D200045787420667573D6
:10E1A00065202020203D20004C6F636B2066757336
:10E1B000652020203D20004D617220203720323024
:10E1C000313300312E362E3800342E332E350056A2
:10E1D00023202020414444522020206F7020636F70
:10E1E00064652020202020696E73747275637469E1
:10E1F0006F6E2061646472202020496E74657272B3
:10E20000757074006E6F20766563746F7200726A49
:10E210006D702020006A6D70200057686174207056
:10E220006F72743A00506F7274206E6F7420737541
:10E2300070706F72746564004D7573742062652030
:10E2400061206C6574746572002000577269747483
:10E25000696E672045450052656164696E672045B7
:10E26000450045452065727220636E743D00504F35
:10E27000525400303D5A65726F2061646472003FF1
:10E280003D43505520737461747300403D454550C3
:10E29000524F4D207465737400423D426C696E6B41
:10E2A000204C454400453D44756D70204545505215
:10E2B0004F4D00463D44756D7020464C415348001B
:10E2C000483D48656C70004C3D4C69737420492F83
:10E2D0004F20506F72747300513D51756974005234
:10E2E0003D44756D702052414D00563D73686F7707
:10E2F00020696E7465727275707420566563746FF0
:10E30000727300593D506F727420626C696E6B00BD
:10E310002A0011241FBECFEFD1E2DEBFCDBF01E046
:10E320000CBF12E0A0E0B2E0EEE1FDEF03E00BBFB6
:10E3300002C007900D92A030B107D9F712E0A0E01B
:10E34000B2E001C01D92AE30B107E1F70F9460F367
:10E350000D948DFE01E20EBF0FEF0DBF11241FBE05
:10E360000D9460F30D9400F020E030E040ED57E0B4
:10E3700005C0FA013197F1F72F5F3F4F2817390792
:10E38000C0F308959C01260F311DC901A0E0B0E043
:10E390002F5F3F4FABBFFC018791882361F08093D3
:10E3A000C6008091C00086FFFCCF8091C0008064D1
:10E3B0008093C000EACF08958DE08093C6008091DD
:10E3C000C00086FFFCCF8091C00080648093C000B5
:10E3D0008AE08093C6008091C00086FFFCCF8091C8
:10E3E000C00080648093C00008950F94C2F10F9420
:10E3F000DCF10895FC019081992359F09093C600B7
:10E400008091C00086FFFCCF8091C0008064809323
:10E41000C0003196992379F70895282F982F929567
:10E420009F70892F805D8A3308F0895F8093C600D2
:10E430008091C00086FFFCCF8091C00080648093F3
:10E44000C000822F8F70982F905D9A3308F0995FEB
:10E450009093C6008091C00086FFFCCF8091C000E1
:10E4600080648093C00008959C01FB01853691056E
:10E470001CF46330710594F0C90164E670E00F94F8
:10E480002EFE605D7F4F6093C6008091C00086FFC6
:10E49000FCCF8091C00080648093C0002B30310598
:10E4A00014F43297B4F0C90164E670E00F942EFEC4
:10E4B0006AE070E00F942EFE605D7F4F6093C600AF
:10E4C0008091C00086FFFCCF8091C0008064809363
:10E4D000C000C9016AE070E00F942EFEC0968093E0
:10E4E000C6008091C00086FFFCCF8091C000806490
:10E4F0008093C00008951F93182F8EE692EE60E07F
:10E500000F94C2F11093C6008091C00086FFFCCF2B
:10E510008091C00080648093C0000F94DCF11F9153
:10E5200008952F923F924F925F926F927F928F92B7
:10E530009F92AF92BF92CF92DF92EF92FF920F9392
:10E540001F93DF93CF93CDB7DEB762970FB6F894E2
:10E55000DEBF0FBECDBF382E622ECA01DB015C01CB
:10E560006D01772420E2222E2E010894411C511CBB
:10E570008BC081E0A81680E0B80681E0C80680E084
:10E58000D80628F0C601AA27BB270F940DF2BB2797
:10E59000AD2D9C2D8B2D0F940DF28A2D0F940DF225
:10E5A0002092C6008091C00086FFFCCF8091C00001
:10E5B00080648093C0009DE29093C6008091C0006B
:10E5C00086FFFCCF8091C00080648093C0002092C1
:10E5D000C6008091C00086FFFCCF8091C00080649F
:10E5E0008093C00019828601750188249924A1E0D6
:10E5F0003A1651F03A1620F0B2E03B1661F409C029
:10E600000BBFF701779007C0C7010F9477FE782EF4
:10E6100002C0F7017080872D0F940DF22092C60082
:10E620008091C00086FFFCCF8091C0008064809301
:10E63000C000872D8052F401EF70F0708F3520F408
:10E64000E40DF51D708204C0E40DF51D8EE280839B
:10E650000894E11CF11C011D111D0894811C911CE2
:10E6600090E18916910409F0C2CF80E190E0A0E02A
:10E67000B0E0A80EB91ECA1EDB1E198AC2010F9493
:10E68000FAF10F94DCF16A94662009F072CF629679
:10E690000FB6F894DEBF0FBECDBFCF91DF911F91B3
:10E6A0000F91FF90EF90DF90CF90BF90AF909F9031
:10E6B0008F907F906F905F904F903F902F90089534
:10E6C0002F923F924F925F926F927F928F929F9282
:10E6D000AF92BF92CF92DF92EF92FF920F931F9370
:10E6E000DF93CF93CDB7DEB7CD53D1400FB6F894BB
:10E6F000DEBF0FBECDBF01E20EBF0FEF0DBF94B75F
:10E70000F894A89514BE80916000886180936000A1
:10E7100010926000789493FF05C0E0910002F091A0
:10E7200001021995279A2F9A8091C00082608093E8
:10E73000C00080E18093C40088E18093C1000000A4
:10E74000EE24FF24870144E0A42EB12CCC24DD2448
:10E7500024C0C5010197F1F70894E11CF11C011DCB
:10E76000111D21E2E2162EE4F20620E0020720E06D
:10E77000120718F031E0C32ED12CC801B70127ECE5
:10E780003BE140E050E00F9441FE611571058105C9
:10E79000910519F485B1805885B98091C00087FD35
:10E7A00003C0C114D104A9F2A6014F5F5F4FC25E3E
:10E7B000DE4F59834883CE51D140C25EDE4F8881FF
:10E7C0009981CE51D140019711F00D9410FEC05D9A
:10E7D000DE4F19821882C053D14060E0C15DDE4F28
:10E7E0001882CF52D14088249924C35DDE4F19820C
:10E7F0001882CD52D140C05EDE4F188219821A8233
:10E800001B82C052D140CE5CDE4F188219821A8220
:10E810001B82C253D140EE24FF2487010BBFF701B6
:10E8200007911691C45CDE4F19830883CC53D14005
:10E830000D940BFEC25EDE4F28813981CE51D1404E
:10E840002130310509F52091C600C25EDE4F1982E4
:10E850001882CE51D14022C02F5F3F4F4F4F5F4FA4
:10E86000213082E138078AE7480780E0580780F0C6
:10E87000C45CDE4FE881F981CC53D140EF5FFF4F9C
:10E8800019F0EE27FF27099420E030E040E050E047
:10E890008091C00087FFE0CF2091C600C35DDE4FAE
:10E8A00048815981CD52D1404F5F5F4FC35DDE4FEC
:10E8B00059834883CD52D140213209F063C64A3092
:10E8C000510508F05FC60894811C911C53E0851621
:10E8D000910409F059C600E010E018C081E280936D
:10E8E000C6008091C00086FFFCCF8091C00080648C
:10E8F0008093C0002F5F3F4F2931310579F70F9486
:10E90000DCF10F5F1F4F0530110519F020E030E0FA
:10E91000E5CF10920A0210920B0210920C02109294
:10E920000D02109206021092070210920802109235
:10E930000902109202021092030210920402109235
:10E9400005028FEE90EE60E00F94F5F180E191EE1C
:10E9500060E00F94C2F18091C00087FFFCCF9091DE
:10E96000C600903608F09F759032B8F09093C600BC
:10E970008091C00086FFFCCF8091C00080648093AE
:10E98000C000A0E2A093C6008091C00086FFFCCF2B
:10E990008091C00080648093C000983409F4D7C18E
:10E9A0009934B8F4923409F459C1933458F490333B
:10E9B00019F1903308F4E3C59F33A1F1903409F0C5
:10E9C000DEC5BDC0953409F470C1963409F0D7C5D1
:10E9D00098C1923509F42BC2933538F49C3409F46C
:10E9E000F5C1913509F0CBC518C2963509F445C279
:10E9F000993509F0C4C567C483E792EE62E00F94CD
:10EA0000F5F110920602109207021092080210927D
:10EA1000090210920A0210920B0210920C0210923C
:10EA20000D0213C18FE792EE62E00F94F5F18FEEC5
:10EA300090EE60E00F94F5F181E291EE60E00F94CA
:10EA4000C2F187EB91EE60E00F94F5F180E391EE77
:10EA500060E00F94C2F184EE90EE60E00F94F5F167
:10EA60008FE391EE60E00F94C2F186E090E061E008
:10EA700070E00F9434F20F94DCF18DE591EE60E0DC
:10EA80000F94C2F189EC91EE60E00F94F5F18EE401
:10EA900091EE60E00F94C2F183EC91EE60E00F9490
:10EAA000F5F18CE691EE60E00F94C2F18EE10F94E7
:10EAB0000DF288E90F940DF281E00F940DF20F949E
:10EAC000DCF18BE791EE60E00F94C2F119E0E0E039
:10EAD000F0E010935700E4918E2F0F940DF20F94F5
:10EAE000DCF18AE891EE60E00F94C2F1E3E0F0E03F
:10EAF00010935700E4918E2F0F940DF20F94DCF1D8
:10EB000089E991EE60E00F94C2F1E2E0F0E0109349
:10EB10005700E4918E2F0F940DF20F94DCF188EAE8
:10EB200091EE60E00F94C2F1E1E0F0E01093570045
:10EB30001491812F0F940DF20F94DCF107CF8BE825
:10EB400092EE62E00F94F5F18BE492EE60E00F94A8
:10EB5000F5F10F94DCF100E010E019C0C8016F2D51
:10EB60000F947FFEFF2031F489E492EE60E00F9471
:10EB7000C2F10BC0F092C6008091C00086FFFCCFAE
:10EB80008091C00080648093C0000F5F1F4FC80158
:10EB900081519F41A0E0B0E0ABBFFC01F790BAE229
:10EBA000FB1621F0E2E000301E07C1F60F94DCF105
:10EBB0000F94DCF187E592EE60E00F94F5F10F948D
:10EBC000DCF1CC24DD2400E010E01EC0C8010F946D
:10EBD00077FEF82E882331F489E492EE60E00F94FA
:10EBE000C2F10BC08093C6008091C00086FFFCCFAD
:10EBF0008091C00080648093C000FE1419F00894D6
:10EC0000C11CD11C0F5F1F4FC80181519F41A0E063
:10EC1000B0E0ABBFFC01E790FAE2EF1621F022E092
:10EC20000030120799F60F94DCF10F94DCF182E6C4
:10EC300092EE60E00F94C2F1C60161E070E00F94C3
:10EC400034F20F94DCF10F94DCF110920202109276
:10EC50000302109204021092050278CE89E992EE26
:10EC600062E00F94F5F1279A2F9A16C02F9880E052
:10EC700090E0E0EDF7E03197F1F7019684369105E9
:10EC8000C1F72F9A80E090E0E0EDF7E03197F1F7DF
:10EC9000019684369105C1F78091C00087FFE6CFC9
:10ECA0008091C00087FFFCCF64C485EA92EE62E0E9
:10ECB0000F94F5F140910202509103026091040219
:10ECC0007091050281E020E10F9491F2809102029F
:10ECD00090910302A0910402B091050280509F4FD1
:10ECE000AF4FBF4F8093020290930302A0930402A0
:10ECF000B093050280509041A040B04008F426CE69
:10ED0000A4CF83EB92EE62E00F94F5F140910602FE
:10ED100050910702609108027091090280E020E1A1
:10ED20000F9491F28091060290910702A09108023F
:10ED3000B091090280509F4FAF4FBF4F80930602A2
:10ED400090930702A0930802B0930902FFCD80ECD4
:10ED500092EE62E00F94F5F183E792EE60E00F949B
:10ED6000F5F18FE792EE60E00F94F5F18BE892EE0B
:10ED700060E00F94F5F189E992EE60E00F94F5F10F
:10ED800085EA92EE60E00F94F5F183EB92EE60E09D
:10ED90000F94F5F180EC92EE60E00F94F5F187ECC2
:10EDA00092EE60E00F94F5F188ED92EE60E00F9442
:10EDB000F5F18FED92EE60E00F94F5F18AEE92EEB0
:10EDC00060E00F94F5F183E093EEBDCD87EC92EE19
:10EDD00062E00F94F5F181E40F947BF282E40F94EA
:10EDE0007BF283E40F947BF284E40F947BF285E45E
:10EDF0000F947BF286E40F947BF287E40F947BF20E
:10EE000088E40F947BF28AE40F947BF28BE40F94F6
:10EE10007BF28CE40F947BF299CD88ED92EE62E068
:10EE20000F94F5F1772473948824992409C48FED05
:10EE300092EE62E00F94F5F140910A0250910B02BC
:10EE400060910C0270910D0282E020E10F9491F22A
:10EE500080910A0290910B02A0910C02B0910D02D8
:10EE600080509F4FAF4FBF4F80930A0290930B0289
:10EE7000A0930C02B0930D0269CD8AEE92EE62E08F
:10EE80000F94F5F184EE90EE60E00F94F5F18FECC5
:10EE900091EE60E00F94F5F1662477244301CC5D98
:10EEA000DE4F19821882C452D140D401C301B695F5
:10EEB000A79597958795CA5DDE4F88839983AA8326
:10EEC000BB83C652D140CC5DDE4FA881B981C4520C
:10EED000D1401196CC5DDE4FB983A883C452D14096
:10EEE000CD0162E070E00F9434F2B0E2B093C6005E
:10EEF0008091C00086FFFCCF8091C0008064809329
:10EF0000C000EDE2E093C6008091C00086FFFCCF18
:10EF10008091C00080648093C000F0E2F093C6004E
:10EF20008091C00086FFFCCF8091C00080648093F8
:10EF3000C000CA5DDE4FE880F9800A811B81C6529D
:10EF4000D140BB27A12F902F8F2D0F940DF2CA5DBA
:10EF5000DE4F8881C652D1400F940DF2B0E2FB2EF5
:10EF6000F092C6008091C00086FFFCCF8091C00067
:10EF700080648093C0000DE30093C6008091C000C0
:10EF800086FFFCCF8091C00080648093C00010E2B7
:10EF90001093C6008091C00086FFFCCF8091C00016
:10EFA00080648093C0008BBEF3012791C65DDE4F65
:10EFB0002883CA52D140A22EBB24CC24DD2408943D
:10EFC000611C711C811C911C8BBEF3018791282E42
:10EFD0003324442455240894611C711C811C911C09
:10EFE0008BBEF3013791C55DDE4F3883CB52D140E4
:10EFF0000894611C711C811C911C8BBEF30147910C
:10F00000C45DDE4F4883CC52D140ADEFEA2EAFEF66
:10F01000FA2EAFEF0A2FAFEF1A2F6E0C7F1C801E57
:10F02000911E142D032DF22CEE24EA0CFB1C0C1D5A
:10F030001D1D0F940DF220E22093C6008091C000A8
:10F0400086FFFCCF8091C00080648093C000C65DC5
:10F05000DE4F8881CA52D1400F940DF230E23093D6
:10F06000C6008091C00086FFFCCF8091C000806404
:10F070008093C000C45DDE4F8881CC52D1400F9494
:10F080000DF240E24093C6008091C00086FFFCCFA5
:10F090008091C00080648093C000C55DDE4F888190
:10F0A000CB52D1400F940DF250E25093C6008091A4
:10F0B000C00086FFFCCF8091C00080648093C000B8
:10F0C0008FEFE8168FEFF80680E0080780E018075A
:10F0D00031F484E092EE60E00F94C2F1DFC0D80119
:10F0E000C7018070907CA070B0708050904CA040A0
:10F0F000B040D1F52FEF3FE340E050E0E222F322B1
:10F1000004231523CA5DDE4FA880B980CA80DB8046
:10F11000C652D140AE0CBF1CC01ED11EAA0CBB1CD7
:10F12000CC1CDD1C8EE092EE60E00F94C2F1BB2798
:10F13000A12F902F8F2D0F940DF28E2D0F940DF285
:10F1400030E23093C6008091C00086FFFCCF8091F2
:10F15000C00080648093C0004EE34093C60080915D
:10F16000C00086FFFCCF87C08EE09EEFA0E0B0E03D
:10F17000E822F9220A231B239CE0E91694E9F90608
:10F1800090E0090790E0190709F088C0C45DDE4FE0
:10F19000A881CC52D140EA2EFF2400E010E0102FCD
:10F1A0000F2DFE2CEE24C55DDE4FB881CB52D14031
:10F1B000EB0EF11C011D111DD601C501817090706F
:10F1C000A070B070DC0199278827E80EF91E0A1F8D
:10F1D0001B1F20EF30E040E050E0A222B322C42207
:10F1E000D52241E1AA0CBB1CCC1CDD1C4A95D1F7F1
:10F1F000EA0CFB1C0C1D1D1D81E090E0A0E0B0E0BE
:10F20000282239224A225B2235E1220C331C441C7D
:10F21000551C3A95D1F7E20CF31C041D151D57013E
:10F220006801AA0CBB1CCC1CDD1C85E192EE60E0E1
:10F230000F94C2F1C801AA27BB270F940DF2BB2778
:10F24000A12F902F8F2D0F940DF28E2D0F940DF274
:10F2500090E29093C6008091C00086FFFCCF809121
:10F26000C00080648093C000AEE3A093C60080918C
:10F27000C00086FFFCCF8091C00080648093C000F6
:10F28000C601AA27BB270F940DF2BB27AD2D9C2DDD
:10F290008B2D0F940DF28A2D0F940DF20F94DCF14B
:10F2A000CC5DDE4FE881F981C452D140F99709F471
:10F2B0004DCBF4E0EF2EF12C012D112D6E0C7F1CA7
:10F2C000801E911EF2CD83E093EE62E00F94F5F183
:10F2D0008AE192EE60E00F94C2F18091C00087FF56
:10F2E000FCCF1091C6001F751093C6008091C0001E
:10F2F00086FFFCCF8091C00080648093C0000F9493
:10F30000DCF1812F81548A3108F036C1163409F4BA
:10F3100095C0173490F4133409F44EC0143430F40B
:10F320001134F1F0123409F01DC130C0143409F465
:10F3300059C0153409F016C16BC01A3409F4C4C0A1
:10F340001B3438F4173409F48FC0183409F00AC19B
:10F35000A1C01B3409F4D2C01C3409F003C1E8C0B9
:10F360008FEF81B90DC082B1809582B980E090E0C5
:10F37000E0EDF7E03197F1F70196883C9105C1F790
:10F380008091C00087FFEFCF12B8EFC08FEF84B934
:10F390000DC085B1809585B980E090E0E0EDF7E0A3
:10F3A0003197F1F70196883C9105C1F78091C00033
:10F3B00087FFEFCF15B8D9C08FEF87B90DC088B1DF
:10F3C000809588B980E090E0E0EDF7E03197F1F7C3
:10F3D0000196883C9105C1F78091C00087FFEFCF6F
:10F3E00018B8C3C08FEF8AB90DC08BB180958BB9A7
:10F3F00080E090E0E0EDF7E03197F1F70196883C8E
:10F400009105C1F78091C00087FFEFCF1BB8ADC059
:10F410008FEF8DB90DC08EB180958EB980E090E0F0
:10F42000E0EDF7E03197F1F70196883C9105C1F7DF
:10F430008091C00087FFEFCF1EB897C08FEF80BBD1
:10F440000DC081B3809581BB80E090E0E0EDF7E0F6
:10F450003197F1F70196883C9105C1F78091C00082
:10F4600087FFEFCF11BA81C08FEF83BB0DC084B38C
:10F47000809584BB80E090E0E0EDF7E03197F1F714
:10F480000196883C9105C1F78091C00087FFEFCFBE
:10F4900014BA6BC08FEF809301010FC080910201FD
:10F4A00080958093020180E090E0E0EDF7E03197F5
:10F4B000F1F70196883C9105C1F78091C00087FF64
:10F4C000EDCF1092020151C08FEF809304010FC065
:10F4D0008091050180958093050180E090E0E0ED4A
:10F4E000F7E03197F1F70196883C9105C1F78091DB
:10F4F000C00087FFEDCF1092050137C08FEF8093DA
:10F5000007010FC08091080180958093080180E079
:10F5100090E0E0EDF7E03197F1F70196883C910536
:10F52000C1F78091C00087FFEDCF109208011DC088
:10F530008FEF80930A010FC080910B01809580931B
:10F540000B0180E090E0E0EDF7E03197F1F70196F4
:10F55000883C9105C1F78091C00087FFEDCF1092E4
:10F560000B0103C085E292EEEEC98091C00087FFD7
:10F57000FCCF8091C600EAC988E392EEE4C98CE131
:10F5800091EEE1C988249924933011F1943028F444
:10F59000913089F09230B8F408C0953061F195301F
:10F5A000F0F0963009F048C043C02B3109F042C951
:10F5B00091E06BE13FC96227C15DDE4F2883CF52E6
:10F5C000D14092E037C9B22FA0E0622793E032C960
:10F5D000822F90E0A82BB92B622794E02BC92E3004
:10F5E00009F039C3622795E0C05DDE4F19821882A9
:10F5F000C053D1401FC9E1E0F0E0EC0FFD1FC05D3A
:10F60000DE4F08811981C053D140E00FF11F2083E4
:10F610000F5F1F4FC05DDE4F19830883C053D14079
:10F6200062270A171B0709F005C9D80196E002C92D
:10F63000261709F010C303C0973009F0FBC87724E0
:10F640009981933109F412C19431C8F4963009F4C8
:10F65000D8C0973050F4923009F406C1933009F4C1
:10F660006DC0913009F059C253C0913109F477C08F
:10F67000923108F0BBC0903109F04FC2F5C098310B
:10F6800009F487C0993150F4953109F4EFC09531F0
:10F6900008F4C6C1963109F040C2C2C19A3109F4DA
:10F6A0006CC09A3108F491C09B3109F45BC09D3164
:10F6B00009F033C29D81903359F48F81882311F46E
:10F6C0009EE11CC0813011F091E018C098E916C08D
:10F6D000892F807591F0903539F4E0E0F0E089E011
:10F6E0008093570094910AC0983539F4E3E0F0E034
:10F6F00089E080935700949101C090E01A821B82A8
:10F700008D818C831D829E831F8227E030E009C299
:10F710001A8288E08B8381E48C8386E58D8382E581
:10F720008E8389E48F8383E5888780E589878FE5E9
:10F730008A8782E38B872BE030E0F3C18A818139AD
:10F7400041F0823941F0803911F48FE005C080E04A
:10F7500003C082E001C08AE01A828B8344C0772410
:10F76000739482C08D81882311F48EE12CC0813086
:10F7700011F081E028C088E926C01A82E1E0F0E0BB
:10F7800089E08093570084918B831C8224E030E0D1
:10F79000C8C18B81803589F48C81883039F4E2E0EE
:10F7A000F0E089E08093570084910DC0E0E0F0E044
:10F7B00089E080935700849106C0E3E0F0E089E09F
:10F7C0008093570084911A82DFCF8D81836C99E0FA
:10F7D000E1E0F0E0082E90935700E89507B600FCB2
:10F7E000FDCF1A821B8223E030E09BC180EC8A832C
:10F7F000CE5CDE4F188219821A821B82C253D1401E
:10F800008EC18A8190E0A0E0B0E0582F44273327D2
:10F8100022278B8190E0A0E0B0E0DC0199278827C7
:10F82000282B392B4A2B5B2B8D8190E0A0E0B0E098
:10F83000282B392B4A2B5B2B8C8190E0A0E0B0E089
:10F84000BA2FA92F982F8827282B392B4A2B5B2BCF
:10F85000220F331F441F551FC05EDE4F288339839C
:10F860004A835B83C052D1401A8259C13A81C95C34
:10F87000DE4F3883C753D140CA5CDE4F1882C6536F
:10F88000D1408B81C82EDD24CA5CDE4F488159816E
:10F89000C653D140C42AD52A933109F082C0CE5C28
:10F8A000DE4F88819981AA81BB81C253D1408050AB
:10F8B000904CA340B04030F583E0CE5CDE4FE88052
:10F8C000F9800A811B81C253D140F70100935B008C
:10F8D00080935700E89507B600FCFDCFCE5CDE4F65
:10F8E000088119812A813B81C253D14000501F4FAA
:10F8F0002F4F3F4FCE5CDE4F088319832A833B8313
:10F90000C253D140C05EDE4F488159816A817B81FC
:10F91000C052D140DE011B9631E08C9111962C91A2
:10F9200011971296C75CDE4F2883C953D140C85C3B
:10F93000DE4F1882C853D14090E0C85CDE4FE881AA
:10F94000F981C853D1408E2B9F2B0C01FA01609393
:10F950005B0030935700E89511244E5F5F4F6F4F67
:10F960007F4F0EEFE02E0FEFF02ECE0CDF1CC114F8
:10F97000D10499F685E0C05EDE4F088119812A81A5
:10F980003B81C052D140F80120935B008093570027
:10F99000E89507B600FCFDCF81E180935700E8951C
:10F9A00035C0C05EDE4F88819981AA81BB81C0527B
:10F9B000D140B695A795979587957C018601ABE0D8
:10F9C000AA2EB12CAC0EBD1E0BC0D5016D915D01F0
:10F9D000C7010F947FFE0894E11CF11C01501040F8
:10F9E0000115110591F7A60160E070E0440F551F65
:10F9F000661F771FC05EDE4FE880F9800A811B8199
:10FA0000C052D1404E0D5F1D601F711F1A82C05E33
:10FA1000DE4F488359836A837B83C052D1407FC0C5
:10FA2000FA80C55CDE4FF882CB53D140C65CDE4F16
:10FA30001882CA53D1408B81C82EDD24C65CDE4FAC
:10FA400008811981CA53D140C02AD12A1A828981DA
:10FA5000BE016D5F7F4F843121F59601C05EDE4FA0
:10FA6000E880F9800A811B81C052D1400BBFF701A9
:10FA700087919691DB018C9311969C936E5F7F4FDB
:10FA8000D801C7010296A11DB11DC05EDE4F88835B
:10FA90009983AA83BB83C052D14022503040F1F6F3
:10FAA00036C0C05EDE4F288139814A815B81C052F9
:10FAB000D1400894C108D108760100E010E0089414
:10FAC000C11CD11C0894E11CF11C011D111DE20E8A
:10FAD000F31E041F151F21BDBB27A52F942F832FB5
:10FAE00082BD2F5F3F4F4F4F5F4FF89A80B5DB01CC
:10FAF0008D93BD012E153F054007510761F7C05E8C
:10FB0000DE4F288339834A835B83C052D1409601FC
:10FB10002D5F3F4FFB01108204C080EC8A8322E0FE
:10FB200030E08BE18093C6008091C00086FFFCCF5F
:10FB30008091C00080648093C000C15DDE4FF88179
:10FB4000CF52D140F093C6008091C00086FFFCCF19
:10FB50008091C00080648093C000432F3093C60022
:10FB60008091C00086FFFCCF8091C00080648093AC
:10FB7000C000922F2093C6008091C00086FFFCCF6A
:10FB80008091C00080648093C0008EE08093C600A6
:10FB90008091C00086FFFCCF8091C000806480937C
:10FBA000C00065E1C15DDE4FE880CF52D1406E25D7
:10FBB00069276427FE01319610C090819093C6009A
:10FBC0008091C00086FFFCCF31968091C000806498
:10FBD0008093C0006927215030402115310569F715
:10FBE0006093C6008091C00086FFFCCF8091C0006A
:10FBF00080648093C00085B1805885B9772081F4F6
:10FC0000C15DDE4F0881CF52D1400F5FC15DDE4F35
:10FC10000883CF52D14090E0A0E0B0E00D941AF4F8
:10FC200027982F9880E090E020ED37E0F901319798
:10FC3000F1F7019684369105C9F700008091C00064
:10FC40008D7F8093C00081E180935700E895EE2777
:10FC5000FF270994FFCF90E00D941AF497FB092E2B
:10FC600007260AD077FD04D02ED006D000201AF443
:10FC7000709561957F4F0895F6F7909581959F4F08
:10FC80000895A1E21A2EAA1BBB1BFD010DC0AA1FDD
:10FC9000BB1FEE1FFF1FA217B307E407F50720F0F5
:10FCA000A21BB30BE40BF50B661F771F881F991F70
:10FCB0001A9469F760957095809590959B01AC01B9
:10FCC000BD01CF010895AA1BBB1B51E107C0AA1FAC
:10FCD000BB1FA617B70710F0A61BB70B881F991FED
:10FCE0005A95A9F780959095BC01CD010895F99991
:10FCF000FECF92BD81BDF89A992780B50895262F31
:10FD0000F999FECF1FBA92BD81BD20BD0FB6F89400
:0EFD1000FA9AF99A0FBE01960895F894FFCF63
:040000033000E000E9
:00000001FF